{
  "_format": "hh-sol-artifact-1",
  "contractName": "Voting",
  "sourceName": "contracts/Voting.sol",
  "abi": [
    {
      "inputs": [],
      "stateMutability": "nonpayable",
      "type": "constructor"
    },
    {
      "inputs": [
        {
          "internalType": "uint256",
          "name": "_electionId",
          "type": "uint256"
        },
        {
          "internalType": "string",
          "name": "_name",
          "type": "string"
        }
      ],
      "name": "addCandidate",
      "outputs": [],
      "stateMutability": "nonpayable",
      "type": "function"
    },
    {
      "inputs": [],
      "name": "admin",
      "outputs": [
        {
          "internalType": "address",
          "name": "",
          "type": "address"
        }
      ],
      "stateMutability": "view",
      "type": "function"
    },
    {
      "inputs": [
        {
          "internalType": "string",
          "name": "_name",
          "type": "string"
        },
        {
          "internalType": "uint256",
          "name": "_startTime",
          "type": "uint256"
        },
        {
          "internalType": "uint256",
          "name": "_endTime",
          "type": "uint256"
        }
      ],
      "name": "createElection",
      "outputs": [],
      "stateMutability": "nonpayable",
      "type": "function"
    },
    {
      "inputs": [],
      "name": "electionCount",
      "outputs": [
        {
          "internalType": "uint256",
          "name": "",
          "type": "uint256"
        }
      ],
      "stateMutability": "view",
      "type": "function"
    },
    {
      "inputs": [
        {
          "internalType": "uint256",
          "name": "_electionId",
          "type": "uint256"
        },
        {
          "internalType": "uint256",
          "name": "_candidateId",
          "type": "uint256"
        }
      ],
      "name": "getCandidate",
      "outputs": [
        {
          "internalType": "string",
          "name": "",
          "type": "string"
        },
        {
          "internalType": "uint256",
          "name": "",
          "type": "uint256"
        }
      ],
      "stateMutability": "view",
      "type": "function"
    },
    {
      "inputs": [
        {
          "internalType": "uint256",
          "name": "_electionId",
          "type": "uint256"
        }
      ],
      "name": "getCandidateCount",
      "outputs": [
        {
          "internalType": "uint256",
          "name": "",
          "type": "uint256"
        }
      ],
      "stateMutability": "view",
      "type": "function"
    },
    {
      "inputs": [
        {
          "internalType": "uint256",
          "name": "_electionId",
          "type": "uint256"
        }
      ],
      "name": "getElection",
      "outputs": [
        {
          "internalType": "string",
          "name": "",
          "type": "string"
        },
        {
          "internalType": "uint256",
          "name": "",
          "type": "uint256"
        },
        {
          "internalType": "uint256",
          "name": "",
          "type": "uint256"
        }
      ],
      "stateMutability": "view",
      "type": "function"
    },
    {
      "inputs": [],
      "name": "getElectionCount",
      "outputs": [
        {
          "internalType": "uint256",
          "name": "",
          "type": "uint256"
        }
      ],
      "stateMutability": "view",
      "type": "function"
    },
    {
      "inputs": [
        {
          "internalType": "uint256",
          "name": "_electionId",
          "type": "uint256"
        },
        {
          "internalType": "bytes32",
          "name": "_hashedPRN",
          "type": "bytes32"
        }
      ],
      "name": "hasPRNVoted",
      "outputs": [
        {
          "internalType": "bool",
          "name": "",
          "type": "bool"
        }
      ],
      "stateMutability": "view",
      "type": "function"
    },
    {
      "inputs": [
        {
          "internalType": "bytes32",
          "name": "_hashedPRN",
          "type": "bytes32"
        }
      ],
      "name": "register",
      "outputs": [],
      "stateMutability": "nonpayable",
      "type": "function"
    },
    {
      "inputs": [
        {
          "internalType": "address",
          "name": "",
          "type": "address"
        }
      ],
      "name": "registeredPRN",
      "outputs": [
        {
          "internalType": "bytes32",
          "name": "",
          "type": "bytes32"
        }
      ],
      "stateMutability": "view",
      "type": "function"
    },
    {
      "inputs": [
        {
          "internalType": "bytes32",
          "name": "",
          "type": "bytes32"
        }
      ],
      "name": "validPRN",
      "outputs": [
        {
          "internalType": "bool",
          "name": "",
          "type": "bool"
        }
      ],
      "stateMutability": "view",
      "type": "function"
    },
    {
      "inputs": [
        {
          "internalType": "uint256",
          "name": "_electionId",
          "type": "uint256"
        },
        {
          "internalType": "uint256",
          "name": "_candidateId",
          "type": "uint256"
        }
      ],
      "name": "vote",
      "outputs": [],
      "stateMutability": "nonpayable",
      "type": "function"
    },
    {
      "inputs": [
        {
          "internalType": "bytes32[]",
          "name": "_hashedPRNs",
          "type": "bytes32[]"
        }
      ],
      "name": "whitelistMultiplePRNs",
      "outputs": [],
      "stateMutability": "nonpayable",
      "type": "function"
    },
    {
      "inputs": [
        {
          "internalType": "bytes32",
          "name": "_hashedPRN",
          "type": "bytes32"
        }
      ],
      "name": "whitelistPRN",
      "outputs": [],
      "stateMutability": "nonpayable",
      "type": "function"
    }
  ],
  "bytecode": "0x608060405234801561001057600080fd5b50336000806101000a81548173ffffffffffffffffffffffffffffffffffffffff021916908373ffffffffffffffffffffffffffffffffffffffff160217905550611b77806100606000396000f3fe608060405234801561001057600080fd5b50600436106100f55760003560e01c8063997d283011610097578063e1fa8e8411610066578063e1fa8e84146102ad578063e20b0d98146102c9578063f49a7a17146102e5578063f851a44014610301576100f5565b8063997d2830146102115780639d7107771461022f578063b384abef14610261578063dc19ee831461027d576100f5565b8063213785a0116100d3578063213785a01461017657806326f6a2aa146101945780634bd46448146101c45780636c89830f146101f5576100f5565b8063062b605e146100fa5780631750a3d01461012a5780631e85b7a814610146575b600080fd5b610114600480360381019061010f9190610d93565b61031f565b6040516101219190610ddb565b60405180910390f35b610144600480360381019061013f9190610f72565b61033f565b005b610160600480360381019061015b9190610fce565b610499565b60405161016d9190610ddb565b60405180910390f35b61017e6104d8565b60405161018b919061101d565b60405180910390f35b6101ae60048036038101906101a99190611038565b6104e2565b6040516101bb919061101d565b60405180910390f35b6101de60048036038101906101d99190611065565b610502565b6040516101ec929190611124565b60405180910390f35b61020f600480360381019061020a919061121c565b6105d1565b005b6102196106c8565b604051610226919061101d565b60405180910390f35b61024960048036038101906102449190611038565b6106ce565b60405161025893929190611265565b60405180910390f35b61027b60048036038101906102769190611065565b610792565b005b61029760048036038101906102929190611301565b6109d8565b6040516102a4919061133d565b60405180910390f35b6102c760048036038101906102c29190610d93565b6109f0565b005b6102e360048036038101906102de9190610d93565b610b1b565b005b6102ff60048036038101906102fa9190611358565b610bd8565b005b610309610d25565b60405161031691906113d6565b60405180910390f35b60036020528060005260406000206000915054906101000a900460ff1681565b60008054906101000a900473ffffffffffffffffffffffffffffffffffffffff1673ffffffffffffffffffffffffffffffffffffffff163373ffffffffffffffffffffffffffffffffffffffff16146103cd576040517f08c379a00000000000000000000000000000000000000000000000000000000081526004016103c49061143d565b60405180910390fd5b6001548210610411576040517f08c379a0000000000000000000000000000000000000000000000000000000008152600401610408906114a9565b60405180910390fd5b60006002600084815260200190815260200160002090506040518060400160405280838152602001600081525081600401600083600301548152602001908152602001600020600082015181600001908161046c91906116d5565b506020820151816001015590505080600301600081548092919061048f906117d6565b9190505550505050565b600060026000848152602001908152602001600020600501600083815260200190815260200160002060009054906101000a900460ff16905092915050565b6000600154905090565b600060026000838152602001908152602001600020600301549050919050565b60606000806002600086815260200190815260200160002060040160008581526020019081526020016000209050806000018160010154818054610545906114f8565b80601f0160208091040260200160405190810160405280929190818152602001828054610571906114f8565b80156105be5780601f10610593576101008083540402835291602001916105be565b820191906000526020600020905b8154815290600101906020018083116105a157829003601f168201915b5050505050915092509250509250929050565b60008054906101000a900473ffffffffffffffffffffffffffffffffffffffff1673ffffffffffffffffffffffffffffffffffffffff163373ffffffffffffffffffffffffffffffffffffffff161461065f576040517f08c379a00000000000000000000000000000000000000000000000000000000081526004016106569061143d565b60405180910390fd5b60005b81518110156106c4576001600360008484815181106106845761068361181e565b5b6020026020010151815260200190815260200160002060006101000a81548160ff02191690831515021790555080806106bc906117d6565b915050610662565b5050565b60015481565b606060008060006002600086815260200190815260200160002090508060000181600101548260020154828054610704906114f8565b80601f0160208091040260200160405190810160405280929190818152602001828054610730906114f8565b801561077d5780601f106107525761010080835404028352916020019161077d565b820191906000526020600020905b81548152906001019060200180831161076057829003601f168201915b50505050509250935093509350509193909250565b60015482106107d6576040517f08c379a00000000000000000000000000000000000000000000000000000000081526004016107cd906114a9565b60405180910390fd5b600060026000848152602001908152602001600020905080600101544210158015610805575080600201544211155b610844576040517f08c379a000000000000000000000000000000000000000000000000000000000815260040161083b90611899565b60405180910390fd5b6000600460003373ffffffffffffffffffffffffffffffffffffffff1673ffffffffffffffffffffffffffffffffffffffff1681526020019081526020016000205490506000801b81036108cd576040517f08c379a00000000000000000000000000000000000000000000000000000000081526004016108c490611905565b60405180910390fd5b81600501600082815260200190815260200160002060009054906101000a900460ff1615610930576040517f08c379a000000000000000000000000000000000000000000000000000000000815260040161092790611971565b60405180910390fd5b81600301548310610976576040517f08c379a000000000000000000000000000000000000000000000000000000000815260040161096d906119dd565b60405180910390fd5b816004016000848152602001908152602001600020600101600081548092919061099f906117d6565b9190505550600182600501600083815260200190815260200160002060006101000a81548160ff02191690831515021790555050505050565b60046020528060005260406000206000915090505481565b6003600082815260200190815260200160002060009054906101000a900460ff16610a50576040517f08c379a0000000000000000000000000000000000000000000000000000000008152600401610a4790611a49565b60405180910390fd5b6000801b600460003373ffffffffffffffffffffffffffffffffffffffff1673ffffffffffffffffffffffffffffffffffffffff1681526020019081526020016000205414610ad4576040517f08c379a0000000000000000000000000000000000000000000000000000000008152600401610acb90611ab5565b60405180910390fd5b80600460003373ffffffffffffffffffffffffffffffffffffffff1673ffffffffffffffffffffffffffffffffffffffff1681526020019081526020016000208190555050565b60008054906101000a900473ffffffffffffffffffffffffffffffffffffffff1673ffffffffffffffffffffffffffffffffffffffff163373ffffffffffffffffffffffffffffffffffffffff1614610ba9576040517f08c379a0000000000000000000000000000000000000000000000000000000008152600401610ba09061143d565b60405180910390fd5b60016003600083815260200190815260200160002060006101000a81548160ff02191690831515021790555050565b60008054906101000a900473ffffffffffffffffffffffffffffffffffffffff1673ffffffffffffffffffffffffffffffffffffffff163373ffffffffffffffffffffffffffffffffffffffff1614610c66576040517f08c379a0000000000000000000000000000000000000000000000000000000008152600401610c5d9061143d565b60405180910390fd5b808210610ca8576040517f08c379a0000000000000000000000000000000000000000000000000000000008152600401610c9f90611b21565b60405180910390fd5b826002600060015481526020019081526020016000206000019081610ccd91906116d5565b508160026000600154815260200190815260200160002060010181905550806002600060015481526020019081526020016000206002018190555060016000815480929190610d1b906117d6565b9190505550505050565b60008054906101000a900473ffffffffffffffffffffffffffffffffffffffff1681565b6000604051905090565b600080fd5b600080fd5b6000819050919050565b610d7081610d5d565b8114610d7b57600080fd5b50565b600081359050610d8d81610d67565b92915050565b600060208284031215610da957610da8610d53565b5b6000610db784828501610d7e565b91505092915050565b60008115159050919050565b610dd581610dc0565b82525050565b6000602082019050610df06000830184610dcc565b92915050565b6000819050919050565b610e0981610df6565b8114610e1457600080fd5b50565b600081359050610e2681610e00565b92915050565b600080fd5b600080fd5b6000601f19601f8301169050919050565b7f4e487b7100000000000000000000000000000000000000000000000000000000600052604160045260246000fd5b610e7f82610e36565b810181811067ffffffffffffffff82111715610e9e57610e9d610e47565b5b80604052505050565b6000610eb1610d49565b9050610ebd8282610e76565b919050565b600067ffffffffffffffff821115610edd57610edc610e47565b5b610ee682610e36565b9050602081019050919050565b82818337600083830152505050565b6000610f15610f1084610ec2565b610ea7565b905082815260208101848484011115610f3157610f30610e31565b5b610f3c848285610ef3565b509392505050565b600082601f830112610f5957610f58610e2c565b5b8135610f69848260208601610f02565b91505092915050565b60008060408385031215610f8957610f88610d53565b5b6000610f9785828601610e17565b925050602083013567ffffffffffffffff811115610fb857610fb7610d58565b5b610fc485828601610f44565b9150509250929050565b60008060408385031215610fe557610fe4610d53565b5b6000610ff385828601610e17565b925050602061100485828601610d7e565b9150509250929050565b61101781610df6565b82525050565b6000602082019050611032600083018461100e565b92915050565b60006020828403121561104e5761104d610d53565b5b600061105c84828501610e17565b91505092915050565b6000806040838503121561107c5761107b610d53565b5b600061108a85828601610e17565b925050602061109b85828601610e17565b9150509250929050565b600081519050919050565b600082825260208201905092915050565b60005b838110156110df5780820151818401526020810190506110c4565b60008484015250505050565b60006110f6826110a5565b61110081856110b0565b93506111108185602086016110c1565b61111981610e36565b840191505092915050565b6000604082019050818103600083015261113e81856110eb565b905061114d602083018461100e565b9392505050565b600067ffffffffffffffff82111561116f5761116e610e47565b5b602082029050602081019050919050565b600080fd5b600061119861119384611154565b610ea7565b905080838252602082019050602084028301858111156111bb576111ba611180565b5b835b818110156111e457806111d08882610d7e565b8452602084019350506020810190506111bd565b5050509392505050565b600082601f83011261120357611202610e2c565b5b8135611213848260208601611185565b91505092915050565b60006020828403121561123257611231610d53565b5b600082013567ffffffffffffffff8111156112505761124f610d58565b5b61125c848285016111ee565b91505092915050565b6000606082019050818103600083015261127f81866110eb565b905061128e602083018561100e565b61129b604083018461100e565b949350505050565b600073ffffffffffffffffffffffffffffffffffffffff82169050919050565b60006112ce826112a3565b9050919050565b6112de816112c3565b81146112e957600080fd5b50565b6000813590506112fb816112d5565b92915050565b60006020828403121561131757611316610d53565b5b6000611325848285016112ec565b91505092915050565b61133781610d5d565b82525050565b6000602082019050611352600083018461132e565b92915050565b60008060006060848603121561137157611370610d53565b5b600084013567ffffffffffffffff81111561138f5761138e610d58565b5b61139b86828701610f44565b93505060206113ac86828701610e17565b92505060406113bd86828701610e17565b9150509250925092565b6113d0816112c3565b82525050565b60006020820190506113eb60008301846113c7565b92915050565b7f4f6e6c792061646d696e20616c6c6f7765640000000000000000000000000000600082015250565b60006114276012836110b0565b9150611432826113f1565b602082019050919050565b600060208201905081810360008301526114568161141a565b9050919050565b7f456c656374696f6e206e6f7420666f756e640000000000000000000000000000600082015250565b60006114936012836110b0565b915061149e8261145d565b602082019050919050565b600060208201905081810360008301526114c281611486565b9050919050565b7f4e487b7100000000000000000000000000000000000000000000000000000000600052602260045260246000fd5b6000600282049050600182168061151057607f821691505b602082108103611523576115226114c9565b5b50919050565b60008190508160005260206000209050919050565b60006020601f8301049050919050565b600082821b905092915050565b60006008830261158b7fffffffffffffffffffffffffffffffffffffffffffffffffffffffffffffffff8261154e565b611595868361154e565b95508019841693508086168417925050509392505050565b6000819050919050565b60006115d26115cd6115c884610df6565b6115ad565b610df6565b9050919050565b6000819050919050565b6115ec836115b7565b6116006115f8826115d9565b84845461155b565b825550505050565b600090565b611615611608565b6116208184846115e3565b505050565b5b818110156116445761163960008261160d565b600181019050611626565b5050565b601f8211156116895761165a81611529565b6116638461153e565b81016020851015611672578190505b61168661167e8561153e565b830182611625565b50505b505050565b600082821c905092915050565b60006116ac6000198460080261168e565b1980831691505092915050565b60006116c5838361169b565b9150826002028217905092915050565b6116de826110a5565b67ffffffffffffffff8111156116f7576116f6610e47565b5b61170182546114f8565b61170c828285611648565b600060209050601f83116001811461173f576000841561172d578287015190505b61173785826116b9565b86555061179f565b601f19841661174d86611529565b60005b8281101561177557848901518255600182019150602085019450602081019050611750565b86831015611792578489015161178e601f89168261169b565b8355505b6001600288020188555050505b505050505050565b7f4e487b7100000000000000000000000000000000000000000000000000000000600052601160045260246000fd5b60006117e182610df6565b91507fffffffffffffffffffffffffffffffffffffffffffffffffffffffffffffffff8203611813576118126117a7565b5b600182019050919050565b7f4e487b7100000000000000000000000000000000000000000000000000000000600052603260045260246000fd5b7f456c656374696f6e206e6f742061637469766500000000000000000000000000600082015250565b60006118836013836110b0565b915061188e8261184d565b602082019050919050565b600060208201905081810360008301526118b281611876565b9050919050565b7f4e6f742072656769737465726564000000000000000000000000000000000000600082015250565b60006118ef600e836110b0565b91506118fa826118b9565b602082019050919050565b6000602082019050818103600083015261191e816118e2565b9050919050565b7f416c726561647920766f74656400000000000000000000000000000000000000600082015250565b600061195b600d836110b0565b915061196682611925565b602082019050919050565b6000602082019050818103600083015261198a8161194e565b9050919050565b7f496e76616c69642063616e646964617465000000000000000000000000000000600082015250565b60006119c76011836110b0565b91506119d282611991565b602082019050919050565b600060208201905081810360008301526119f6816119ba565b9050919050565b7f50524e206e6f742076616c696400000000000000000000000000000000000000600082015250565b6000611a33600d836110b0565b9150611a3e826119fd565b602082019050919050565b60006020820190508181036000830152611a6281611a26565b9050919050565b7f57616c6c657420616c7265616479207265676973746572656400000000000000600082015250565b6000611a9f6019836110b0565b9150611aaa82611a69565b602082019050919050565b60006020820190508181036000830152611ace81611a92565b9050919050565b7f496e76616c69642074696d652072616e67650000000000000000000000000000600082015250565b6000611b0b6012836110b0565b9150611b1682611ad5565b602082019050919050565b60006020820190508181036000830152611b3a81611afe565b905091905056fea2646970667358221220f4bb0223d7d62ab5aa0624753494b1f0b1769e37c24838619b9915a2b9e0c2be64736f6c63430008140033",
  "linkReferences": {},
  "deployedLinkReferences": {}
}