{
  "_format": "hh-sol-artifact-1",
  "contractName": "Voting",
  "sourceName": "contracts/Voting.sol",
  "abi": [
    {
      "inputs": [],
      "stateMutability": "nonpayable",
      "type": "constructor"
    },
    {
      "inputs": [
        {
          "internalType": "uint256",
          "name": "_electionId",
          "type": "uint256"
        },
        {
          "internalType": "string",
          "name": "_name",
          "type": "string"
        }
      ],
      "name": "addCandidate",
      "outputs": [],
      "stateMutability": "nonpayable",
      "type": "function"
    },
    {
      "inputs": [],
      "name": "admin",
      "outputs": [
        {
          "internalType": "address",
          "name": "",
          "type": "address"
        }
      ],
      "stateMutability": "view",
      "type": "function"
    },
    {
      "inputs": [
        {
          "internalType": "string",
          "name": "_name",
          "type": "string"
        },
        {
          "internalType": "uint256",
          "name": "_startTime",
          "type": "uint256"
        },
        {
          "internalType": "uint256",
          "name": "_endTime",
          "type": "uint256"
        }
      ],
      "name": "createElection",
      "outputs": [],
      "stateMutability": "nonpayable",
      "type": "function"
    },
    {
      "inputs": [],
      "name": "electionCount",
      "outputs": [
        {
          "internalType": "uint256",
          "name": "",
          "type": "uint256"
        }
      ],
      "stateMutability": "view",
      "type": "function"
    },
    {
      "inputs": [
        {
          "internalType": "uint256",
          "name": "id",
          "type": "uint256"
        },
        {
          "internalType": "uint256",
          "name": "cid",
          "type": "uint256"
        }
      ],
      "name": "getCandidate",
      "outputs": [
        {
          "internalType": "string",
          "name": "",
          "type": "string"
        },
        {
          "internalType": "uint256",
          "name": "",
          "type": "uint256"
        }
      ],
      "stateMutability": "view",
      "type": "function"
    },
    {
      "inputs": [
        {
          "internalType": "uint256",
          "name": "id",
          "type": "uint256"
        }
      ],
      "name": "getCandidateCount",
      "outputs": [
        {
          "internalType": "uint256",
          "name": "",
          "type": "uint256"
        }
      ],
      "stateMutability": "view",
      "type": "function"
    },
    {
      "inputs": [
        {
          "internalType": "uint256",
          "name": "id",
          "type": "uint256"
        }
      ],
      "name": "getElection",
      "outputs": [
        {
          "internalType": "string",
          "name": "",
          "type": "string"
        },
        {
          "internalType": "uint256",
          "name": "",
          "type": "uint256"
        },
        {
          "internalType": "uint256",
          "name": "",
          "type": "uint256"
        }
      ],
      "stateMutability": "view",
      "type": "function"
    },
    {
      "inputs": [],
      "name": "getElectionCount",
      "outputs": [
        {
          "internalType": "uint256",
          "name": "",
          "type": "uint256"
        }
      ],
      "stateMutability": "view",
      "type": "function"
    },
    {
      "inputs": [
        {
          "internalType": "uint256",
          "name": "_electionId",
          "type": "uint256"
        },
        {
          "internalType": "address",
          "name": "user",
          "type": "address"
        }
      ],
      "name": "hasAlreadyVoted",
      "outputs": [
        {
          "internalType": "bool",
          "name": "",
          "type": "bool"
        }
      ],
      "stateMutability": "view",
      "type": "function"
    },
    {
      "inputs": [
        {
          "internalType": "uint256",
          "name": "_electionId",
          "type": "uint256"
        },
        {
          "internalType": "address",
          "name": "user",
          "type": "address"
        }
      ],
      "name": "isRegistered",
      "outputs": [
        {
          "internalType": "bool",
          "name": "",
          "type": "bool"
        }
      ],
      "stateMutability": "view",
      "type": "function"
    },
    {
      "inputs": [
        {
          "internalType": "uint256",
          "name": "_electionId",
          "type": "uint256"
        },
        {
          "internalType": "bytes32",
          "name": "h",
          "type": "bytes32"
        }
      ],
      "name": "isWhitelisted",
      "outputs": [
        {
          "internalType": "bool",
          "name": "",
          "type": "bool"
        }
      ],
      "stateMutability": "view",
      "type": "function"
    },
    {
      "inputs": [
        {
          "internalType": "uint256",
          "name": "_electionId",
          "type": "uint256"
        },
        {
          "internalType": "bytes32",
          "name": "_hashedId",
          "type": "bytes32"
        }
      ],
      "name": "register",
      "outputs": [],
      "stateMutability": "nonpayable",
      "type": "function"
    },
    {
      "inputs": [
        {
          "internalType": "uint256",
          "name": "",
          "type": "uint256"
        },
        {
          "internalType": "address",
          "name": "",
          "type": "address"
        }
      ],
      "name": "registeredVoterId",
      "outputs": [
        {
          "internalType": "bytes32",
          "name": "",
          "type": "bytes32"
        }
      ],
      "stateMutability": "view",
      "type": "function"
    },
    {
      "inputs": [
        {
          "internalType": "address",
          "name": "newAdmin",
          "type": "address"
        }
      ],
      "name": "transferAdmin",
      "outputs": [],
      "stateMutability": "nonpayable",
      "type": "function"
    },
    {
      "inputs": [
        {
          "internalType": "uint256",
          "name": "",
          "type": "uint256"
        },
        {
          "internalType": "bytes32",
          "name": "",
          "type": "bytes32"
        }
      ],
      "name": "validVoterId",
      "outputs": [
        {
          "internalType": "bool",
          "name": "",
          "type": "bool"
        }
      ],
      "stateMutability": "view",
      "type": "function"
    },
    {
      "inputs": [
        {
          "internalType": "uint256",
          "name": "_electionId",
          "type": "uint256"
        },
        {
          "internalType": "uint256",
          "name": "_candidateId",
          "type": "uint256"
        }
      ],
      "name": "vote",
      "outputs": [],
      "stateMutability": "nonpayable",
      "type": "function"
    },
    {
      "inputs": [
        {
          "internalType": "uint256",
          "name": "",
          "type": "uint256"
        },
        {
          "internalType": "bytes32",
          "name": "",
          "type": "bytes32"
        }
      ],
      "name": "voterIdUsed",
      "outputs": [
        {
          "internalType": "bool",
          "name": "",
          "type": "bool"
        }
      ],
      "stateMutability": "view",
      "type": "function"
    },
    {
      "inputs": [
        {
          "internalType": "uint256",
          "name": "_electionId",
          "type": "uint256"
        },
        {
          "internalType": "bytes32[]",
          "name": "_ids",
          "type": "bytes32[]"
        }
      ],
      "name": "whitelistMultipleVoterIds",
      "outputs": [],
      "stateMutability": "nonpayable",
      "type": "function"
    }
  ],
  "bytecode": "0x608060405234801561001057600080fd5b50336000806101000a81548173ffffffffffffffffffffffffffffffffffffffff021916908373ffffffffffffffffffffffffffffffffffffffff160217905550611d5e806100606000396000f3fe608060405234801561001057600080fd5b50600436106101165760003560e01c8063997d2830116100a2578063c14bfd2911610071578063c14bfd291461031a578063f0ba55e01461034a578063f49a7a171461037a578063f851a44014610396578063fe0af8f7146103b457610116565b8063997d28301461027e5780639d7107771461029c578063b384abef146102ce578063b81f6e18146102ea57610116565b80632965d809116100e95780632965d809146101b55780634bd46448146101d15780636909fd44146102025780636aca18581461023257806375829def1461026257610116565b80631750a3d01461011b5780631a5455fc14610137578063213785a01461016757806326f6a2aa14610185575b600080fd5b61013560048036038101906101309190611106565b6103d0565b005b610151600480360381019061014c91906111c0565b6104e6565b60405161015e9190611219565b60405180910390f35b61016f61050b565b60405161017c9190611243565b60405180910390f35b61019f600480360381019061019a919061125e565b610515565b6040516101ac9190611243565b60405180910390f35b6101cf60048036038101906101ca91906112b7565b610535565b005b6101eb60048036038101906101e691906112f7565b610743565b6040516101f99291906113b6565b60405180910390f35b61021c600480360381019061021791906112b7565b610812565b6040516102299190611401565b60405180910390f35b61024c600480360381019061024791906112b7565b61084e565b6040516102599190611401565b60405180910390f35b61027c6004803603810190610277919061141c565b61087d565b005b61028661094e565b6040516102939190611243565b60405180910390f35b6102b660048036038101906102b1919061125e565b610954565b6040516102c593929190611449565b60405180910390f35b6102e860048036038101906102e391906112f7565b610a18565b005b61030460048036038101906102ff91906111c0565b610be5565b6040516103119190611401565b60405180910390f35b610334600480360381019061032f91906111c0565b610c46565b6040516103419190611401565b60405180910390f35b610364600480360381019061035f91906112b7565b610cef565b6040516103719190611401565b60405180910390f35b610394600480360381019061038f9190611487565b610d1e565b005b61039e610e49565b6040516103ab9190611505565b60405180910390f35b6103ce60048036038101906103c991906115e8565b610e6d565b005b60008054906101000a900473ffffffffffffffffffffffffffffffffffffffff1673ffffffffffffffffffffffffffffffffffffffff163373ffffffffffffffffffffffffffffffffffffffff161461045e576040517f08c379a000000000000000000000000000000000000000000000000000000000815260040161045590611690565b60405180910390fd5b6000600260008481526020019081526020016000209050604051806040016040528083815260200160008152508160040160008360030154815260200190815260200160002060008201518160000190816104b991906118bc565b50602082015181600101559050508060030160008154809291906104dc906119bd565b9190505550505050565b6004602052816000526040600020602052806000526040600020600091509150505481565b6000600154905090565b600060026000838152602001908152602001600020600301549050919050565b60036000838152602001908152602001600020600082815260200190815260200160002060009054906101000a900460ff166105a6576040517f08c379a000000000000000000000000000000000000000000000000000000000815260040161059d90611a51565b60405180910390fd5b6000801b6004600084815260200190815260200160002060003373ffffffffffffffffffffffffffffffffffffffff1673ffffffffffffffffffffffffffffffffffffffff168152602001908152602001600020541461063b576040517f08c379a000000000000000000000000000000000000000000000000000000000815260040161063290611abd565b60405180910390fd5b60056000838152602001908152602001600020600082815260200190815260200160002060009054906101000a900460ff16156106ad576040517f08c379a00000000000000000000000000000000000000000000000000000000081526004016106a490611b29565b60405180910390fd5b806004600084815260200190815260200160002060003373ffffffffffffffffffffffffffffffffffffffff1673ffffffffffffffffffffffffffffffffffffffff16815260200190815260200160002081905550600160056000848152602001908152602001600020600083815260200190815260200160002060006101000a81548160ff0219169083151502179055505050565b60606000806002600086815260200190815260200160002060040160008581526020019081526020016000209050806000018160010154818054610786906116df565b80601f01602080910402602001604051908101604052809291908181526020018280546107b2906116df565b80156107ff5780601f106107d4576101008083540402835291602001916107ff565b820191906000526020600020905b8154815290600101906020018083116107e257829003601f168201915b5050505050915092509250509250929050565b600060036000848152602001908152602001600020600083815260200190815260200160002060009054906101000a900460ff16905092915050565b60056020528160005260406000206020528060005260406000206000915091509054906101000a900460ff1681565b60008054906101000a900473ffffffffffffffffffffffffffffffffffffffff1673ffffffffffffffffffffffffffffffffffffffff163373ffffffffffffffffffffffffffffffffffffffff161461090b576040517f08c379a000000000000000000000000000000000000000000000000000000000815260040161090290611690565b60405180910390fd5b806000806101000a81548173ffffffffffffffffffffffffffffffffffffffff021916908373ffffffffffffffffffffffffffffffffffffffff16021790555050565b60015481565b60606000806000600260008681526020019081526020016000209050806000018160010154826002015482805461098a906116df565b80601f01602080910402602001604051908101604052809291908181526020018280546109b6906116df565b8015610a035780601f106109d857610100808354040283529160200191610a03565b820191906000526020600020905b8154815290600101906020018083116109e657829003601f168201915b50505050509250935093509350509193909250565b600060026000848152602001908152602001600020905080600101544210158015610a47575080600201544211155b610a86576040517f08c379a0000000000000000000000000000000000000000000000000000000008152600401610a7d90611b95565b60405180910390fd5b60006004600085815260200190815260200160002060003373ffffffffffffffffffffffffffffffffffffffff1673ffffffffffffffffffffffffffffffffffffffff1681526020019081526020016000205490506000801b8103610b20576040517f08c379a0000000000000000000000000000000000000000000000000000000008152600401610b1790611c01565b60405180910390fd5b81600501600082815260200190815260200160002060009054906101000a900460ff1615610b83576040517f08c379a0000000000000000000000000000000000000000000000000000000008152600401610b7a90611c6d565b60405180910390fd5b8160040160008481526020019081526020016000206001016000815480929190610bac906119bd565b9190505550600182600501600083815260200190815260200160002060006101000a81548160ff02191690831515021790555050505050565b60008060001b6004600085815260200190815260200160002060008473ffffffffffffffffffffffffffffffffffffffff1673ffffffffffffffffffffffffffffffffffffffff168152602001908152602001600020541415905092915050565b6000806004600085815260200190815260200160002060008473ffffffffffffffffffffffffffffffffffffffff1673ffffffffffffffffffffffffffffffffffffffff1681526020019081526020016000205490506000801b8103610cb0576000915050610ce9565b60026000858152602001908152602001600020600501600082815260200190815260200160002060009054906101000a900460ff169150505b92915050565b60036020528160005260406000206020528060005260406000206000915091509054906101000a900460ff1681565b60008054906101000a900473ffffffffffffffffffffffffffffffffffffffff1673ffffffffffffffffffffffffffffffffffffffff163373ffffffffffffffffffffffffffffffffffffffff1614610dac576040517f08c379a0000000000000000000000000000000000000000000000000000000008152600401610da390611690565b60405180910390fd5b808210610dee576040517f08c379a0000000000000000000000000000000000000000000000000000000008152600401610de590611cd9565b60405180910390fd5b6000600260006001548152602001908152602001600020905083816000019081610e1891906118bc565b5082816001018190555081816002018190555060016000815480929190610e3e906119bd565b919050555050505050565b60008054906101000a900473ffffffffffffffffffffffffffffffffffffffff1681565b60008054906101000a900473ffffffffffffffffffffffffffffffffffffffff1673ffffffffffffffffffffffffffffffffffffffff163373ffffffffffffffffffffffffffffffffffffffff1614610efb576040517f08c379a0000000000000000000000000000000000000000000000000000000008152600401610ef290611690565b60405180910390fd5b60005b8151811015610f71576001600360008581526020019081526020016000206000848481518110610f3157610f30611cf9565b5b6020026020010151815260200190815260200160002060006101000a81548160ff0219169083151502179055508080610f69906119bd565b915050610efe565b505050565b6000604051905090565b600080fd5b600080fd5b6000819050919050565b610f9d81610f8a565b8114610fa857600080fd5b50565b600081359050610fba81610f94565b92915050565b600080fd5b600080fd5b6000601f19601f8301169050919050565b7f4e487b7100000000000000000000000000000000000000000000000000000000600052604160045260246000fd5b61101382610fca565b810181811067ffffffffffffffff8211171561103257611031610fdb565b5b80604052505050565b6000611045610f76565b9050611051828261100a565b919050565b600067ffffffffffffffff82111561107157611070610fdb565b5b61107a82610fca565b9050602081019050919050565b82818337600083830152505050565b60006110a96110a484611056565b61103b565b9050828152602081018484840111156110c5576110c4610fc5565b5b6110d0848285611087565b509392505050565b600082601f8301126110ed576110ec610fc0565b5b81356110fd848260208601611096565b91505092915050565b6000806040838503121561111d5761111c610f80565b5b600061112b85828601610fab565b925050602083013567ffffffffffffffff81111561114c5761114b610f85565b5b611158858286016110d8565b9150509250929050565b600073ffffffffffffffffffffffffffffffffffffffff82169050919050565b600061118d82611162565b9050919050565b61119d81611182565b81146111a857600080fd5b50565b6000813590506111ba81611194565b92915050565b600080604083850312156111d7576111d6610f80565b5b60006111e585828601610fab565b92505060206111f6858286016111ab565b9150509250929050565b6000819050919050565b61121381611200565b82525050565b600060208201905061122e600083018461120a565b92915050565b61123d81610f8a565b82525050565b60006020820190506112586000830184611234565b92915050565b60006020828403121561127457611273610f80565b5b600061128284828501610fab565b91505092915050565b61129481611200565b811461129f57600080fd5b50565b6000813590506112b18161128b565b92915050565b600080604083850312156112ce576112cd610f80565b5b60006112dc85828601610fab565b92505060206112ed858286016112a2565b9150509250929050565b6000806040838503121561130e5761130d610f80565b5b600061131c85828601610fab565b925050602061132d85828601610fab565b9150509250929050565b600081519050919050565b600082825260208201905092915050565b60005b83811015611371578082015181840152602081019050611356565b60008484015250505050565b600061138882611337565b6113928185611342565b93506113a2818560208601611353565b6113ab81610fca565b840191505092915050565b600060408201905081810360008301526113d0818561137d565b90506113df6020830184611234565b9392505050565b60008115159050919050565b6113fb816113e6565b82525050565b600060208201905061141660008301846113f2565b92915050565b60006020828403121561143257611431610f80565b5b6000611440848285016111ab565b91505092915050565b60006060820190508181036000830152611463818661137d565b90506114726020830185611234565b61147f6040830184611234565b949350505050565b6000806000606084860312156114a05761149f610f80565b5b600084013567ffffffffffffffff8111156114be576114bd610f85565b5b6114ca868287016110d8565b93505060206114db86828701610fab565b92505060406114ec86828701610fab565b9150509250925092565b6114ff81611182565b82525050565b600060208201905061151a60008301846114f6565b92915050565b600067ffffffffffffffff82111561153b5761153a610fdb565b5b602082029050602081019050919050565b600080fd5b600061156461155f84611520565b61103b565b905080838252602082019050602084028301858111156115875761158661154c565b5b835b818110156115b0578061159c88826112a2565b845260208401935050602081019050611589565b5050509392505050565b600082601f8301126115cf576115ce610fc0565b5b81356115df848260208601611551565b91505092915050565b600080604083850312156115ff576115fe610f80565b5b600061160d85828601610fab565b925050602083013567ffffffffffffffff81111561162e5761162d610f85565b5b61163a858286016115ba565b9150509250929050565b7f4f6e6c792061646d696e20616c6c6f7765640000000000000000000000000000600082015250565b600061167a601283611342565b915061168582611644565b602082019050919050565b600060208201905081810360008301526116a98161166d565b9050919050565b7f4e487b7100000000000000000000000000000000000000000000000000000000600052602260045260246000fd5b600060028204905060018216806116f757607f821691505b60208210810361170a576117096116b0565b5b50919050565b60008190508160005260206000209050919050565b60006020601f8301049050919050565b600082821b905092915050565b6000600883026117727fffffffffffffffffffffffffffffffffffffffffffffffffffffffffffffffff82611735565b61177c8683611735565b95508019841693508086168417925050509392505050565b6000819050919050565b60006117b96117b46117af84610f8a565b611794565b610f8a565b9050919050565b6000819050919050565b6117d38361179e565b6117e76117df826117c0565b848454611742565b825550505050565b600090565b6117fc6117ef565b6118078184846117ca565b505050565b5b8181101561182b576118206000826117f4565b60018101905061180d565b5050565b601f8211156118705761184181611710565b61184a84611725565b81016020851015611859578190505b61186d61186585611725565b83018261180c565b50505b505050565b600082821c905092915050565b600061189360001984600802611875565b1980831691505092915050565b60006118ac8383611882565b9150826002028217905092915050565b6118c582611337565b67ffffffffffffffff8111156118de576118dd610fdb565b5b6118e882546116df565b6118f382828561182f565b600060209050601f8311600181146119265760008415611914578287015190505b61191e85826118a0565b865550611986565b601f19841661193486611710565b60005b8281101561195c57848901518255600182019150602085019450602081019050611937565b868310156119795784890151611975601f891682611882565b8355505b6001600288020188555050505b505050505050565b7f4e487b7100000000000000000000000000000000000000000000000000000000600052601160045260246000fd5b60006119c882610f8a565b91507fffffffffffffffffffffffffffffffffffffffffffffffffffffffffffffffff82036119fa576119f961198e565b5b600182019050919050565b7f4e6f742077686974656c69737465640000000000000000000000000000000000600082015250565b6000611a3b600f83611342565b9150611a4682611a05565b602082019050919050565b60006020820190508181036000830152611a6a81611a2e565b9050919050565b7f416c726561647920726567697374657265640000000000000000000000000000600082015250565b6000611aa7601283611342565b9150611ab282611a71565b602082019050919050565b60006020820190508181036000830152611ad681611a9a565b9050919050565b7f4161646861617220616c72656164792075736564000000000000000000000000600082015250565b6000611b13601483611342565b9150611b1e82611add565b602082019050919050565b60006020820190508181036000830152611b4281611b06565b9050919050565b7f456c656374696f6e206e6f742061637469766500000000000000000000000000600082015250565b6000611b7f601383611342565b9150611b8a82611b49565b602082019050919050565b60006020820190508181036000830152611bae81611b72565b9050919050565b7f4e6f742072656769737465726564000000000000000000000000000000000000600082015250565b6000611beb600e83611342565b9150611bf682611bb5565b602082019050919050565b60006020820190508181036000830152611c1a81611bde565b9050919050565b7f416c726561647920766f74656400000000000000000000000000000000000000600082015250565b6000611c57600d83611342565b9150611c6282611c21565b602082019050919050565b60006020820190508181036000830152611c8681611c4a565b9050919050565b7f496e76616c69642074696d650000000000000000000000000000000000000000600082015250565b6000611cc3600c83611342565b9150611cce82611c8d565b602082019050919050565b60006020820190508181036000830152611cf281611cb6565b9050919050565b7f4e487b7100000000000000000000000000000000000000000000000000000000600052603260045260246000fdfea2646970667358221220ce2397197ce68db3891902c2486442405e9f0c152ee4f83353c1f0fe7a28d26364736f6c63430008140033",
  "linkReferences": {},
  "deployedLinkReferences": {}
}