{
  "_format": "hh-sol-artifact-1",
  "contractName": "Voting",
  "sourceName": "contracts/Voting.sol",
  "abi": [
    {
      "inputs": [],
      "stateMutability": "nonpayable",
      "type": "constructor"
    },
    {
      "inputs": [
        {
          "internalType": "string",
          "name": "_name",
          "type": "string"
        }
      ],
      "name": "addCandidate",
      "outputs": [],
      "stateMutability": "nonpayable",
      "type": "function"
    },
    {
      "inputs": [],
      "name": "admin",
      "outputs": [
        {
          "internalType": "address",
          "name": "",
          "type": "address"
        }
      ],
      "stateMutability": "view",
      "type": "function"
    },
    {
      "inputs": [],
      "name": "candidateCount",
      "outputs": [
        {
          "internalType": "uint256",
          "name": "",
          "type": "uint256"
        }
      ],
      "stateMutability": "view",
      "type": "function"
    },
    {
      "inputs": [
        {
          "internalType": "uint256",
          "name": "",
          "type": "uint256"
        }
      ],
      "name": "candidates",
      "outputs": [
        {
          "internalType": "uint256",
          "name": "id",
          "type": "uint256"
        },
        {
          "internalType": "string",
          "name": "name",
          "type": "string"
        },
        {
          "internalType": "uint256",
          "name": "voteCount",
          "type": "uint256"
        }
      ],
      "stateMutability": "view",
      "type": "function"
    }
  ],
  "bytecode": "0x608060405234801561001057600080fd5b50336000806101000a81548173ffffffffffffffffffffffffffffffffffffffff021916908373ffffffffffffffffffffffffffffffffffffffff1602179055506107dd806100606000396000f3fe608060405234801561001057600080fd5b506004361061004c5760003560e01c80633477ee2e14610051578063462e91ec14610083578063a9a981a31461009f578063f851a440146100bd575b600080fd5b61006b60048036038101906100669190610428565b6100db565b60405161007a9392919061053e565b60405180910390f35b61009d600480360381019061009891906103e7565b61018d565b005b6100a761029d565b6040516100b49190610523565b60405180910390f35b6100c56102a3565b6040516100d291906104e8565b60405180910390f35b600260205280600052604060002060009150905080600001549080600101805461010490610677565b80601f016020809104026020016040519081016040528092919081815260200182805461013090610677565b801561017d5780601f106101525761010080835404028352916020019161017d565b820191906000526020600020905b81548152906001019060200180831161016057829003601f168201915b5050505050908060020154905083565b60008054906101000a900473ffffffffffffffffffffffffffffffffffffffff1673ffffffffffffffffffffffffffffffffffffffff163373ffffffffffffffffffffffffffffffffffffffff161461021b576040517f08c379a000000000000000000000000000000000000000000000000000000000815260040161021290610503565b60405180910390fd5b6001600081548092919061022e906106a9565b919050555060405180606001604052806001548152602001828152602001600081525060026000600154815260200190815260200160002060008201518160000155602082015181600101908051906020019061028c9291906102c7565b506040820151816002015590505050565b60015481565b60008054906101000a900473ffffffffffffffffffffffffffffffffffffffff1681565b8280546102d390610677565b90600052602060002090601f0160209004810192826102f5576000855561033c565b82601f1061030e57805160ff191683800117855561033c565b8280016001018555821561033c579182015b8281111561033b578251825591602001919060010190610320565b5b509050610349919061034d565b5090565b5b8082111561036657600081600090555060010161034e565b5090565b600061037d610378846105ad565b61057c565b90508281526020810184848401111561039557600080fd5b6103a0848285610635565b509392505050565b600082601f8301126103b957600080fd5b81356103c984826020860161036a565b91505092915050565b6000813590506103e181610790565b92915050565b6000602082840312156103f957600080fd5b600082013567ffffffffffffffff81111561041357600080fd5b61041f848285016103a8565b91505092915050565b60006020828403121561043a57600080fd5b6000610448848285016103d2565b91505092915050565b61045a816105f9565b82525050565b600061046b826105dd565b61047581856105e8565b9350610485818560208601610644565b61048e8161077f565b840191505092915050565b60006104a6600a836105e8565b91507f4f6e6c792061646d696e000000000000000000000000000000000000000000006000830152602082019050919050565b6104e28161062b565b82525050565b60006020820190506104fd6000830184610451565b92915050565b6000602082019050818103600083015261051c81610499565b9050919050565b600060208201905061053860008301846104d9565b92915050565b600060608201905061055360008301866104d9565b81810360208301526105658185610460565b905061057460408301846104d9565b949350505050565b6000604051905081810181811067ffffffffffffffff821117156105a3576105a2610750565b5b8060405250919050565b600067ffffffffffffffff8211156105c8576105c7610750565b5b601f19601f8301169050602081019050919050565b600081519050919050565b600082825260208201905092915050565b60006106048261060b565b9050919050565b600073ffffffffffffffffffffffffffffffffffffffff82169050919050565b6000819050919050565b82818337600083830152505050565b60005b83811015610662578082015181840152602081019050610647565b83811115610671576000848401525b50505050565b6000600282049050600182168061068f57607f821691505b602082108114156106a3576106a2610721565b5b50919050565b60006106b48261062b565b91507fffffffffffffffffffffffffffffffffffffffffffffffffffffffffffffffff8214156106e7576106e66106f2565b5b600182019050919050565b7f4e487b7100000000000000000000000000000000000000000000000000000000600052601160045260246000fd5b7f4e487b7100000000000000000000000000000000000000000000000000000000600052602260045260246000fd5b7f4e487b7100000000000000000000000000000000000000000000000000000000600052604160045260246000fd5b6000601f19601f8301169050919050565b6107998161062b565b81146107a457600080fd5b5056fea264697066735822122039c40834b8b019991d985c27f21cfb4e5c295a806c078e4f036c0dc560310a5964736f6c63430008000033",
  "linkReferences": {},
  "deployedLinkReferences": {}
}