{
  "_format": "hh-sol-artifact-1",
  "contractName": "Voting",
  "sourceName": "contracts/Voting.sol",
  "abi": [
    {
      "inputs": [],
      "stateMutability": "nonpayable",
      "type": "constructor"
    },
    {
      "inputs": [
        {
          "internalType": "uint256",
          "name": "_electionId",
          "type": "uint256"
        },
        {
          "internalType": "string",
          "name": "_name",
          "type": "string"
        }
      ],
      "name": "addCandidate",
      "outputs": [],
      "stateMutability": "nonpayable",
      "type": "function"
    },
    {
      "inputs": [],
      "name": "admin",
      "outputs": [
        {
          "internalType": "address",
          "name": "",
          "type": "address"
        }
      ],
      "stateMutability": "view",
      "type": "function"
    },
    {
      "inputs": [
        {
          "internalType": "string",
          "name": "_name",
          "type": "string"
        },
        {
          "internalType": "uint256",
          "name": "_startTime",
          "type": "uint256"
        },
        {
          "internalType": "uint256",
          "name": "_endTime",
          "type": "uint256"
        }
      ],
      "name": "createElection",
      "outputs": [],
      "stateMutability": "nonpayable",
      "type": "function"
    },
    {
      "inputs": [],
      "name": "electionCount",
      "outputs": [
        {
          "internalType": "uint256",
          "name": "",
          "type": "uint256"
        }
      ],
      "stateMutability": "view",
      "type": "function"
    },
    {
      "inputs": [
        {
          "internalType": "uint256",
          "name": "id",
          "type": "uint256"
        },
        {
          "internalType": "uint256",
          "name": "cid",
          "type": "uint256"
        }
      ],
      "name": "getCandidate",
      "outputs": [
        {
          "internalType": "string",
          "name": "",
          "type": "string"
        },
        {
          "internalType": "uint256",
          "name": "",
          "type": "uint256"
        }
      ],
      "stateMutability": "view",
      "type": "function"
    },
    {
      "inputs": [
        {
          "internalType": "uint256",
          "name": "id",
          "type": "uint256"
        }
      ],
      "name": "getCandidateCount",
      "outputs": [
        {
          "internalType": "uint256",
          "name": "",
          "type": "uint256"
        }
      ],
      "stateMutability": "view",
      "type": "function"
    },
    {
      "inputs": [
        {
          "internalType": "uint256",
          "name": "id",
          "type": "uint256"
        }
      ],
      "name": "getElection",
      "outputs": [
        {
          "internalType": "string",
          "name": "",
          "type": "string"
        },
        {
          "internalType": "uint256",
          "name": "",
          "type": "uint256"
        },
        {
          "internalType": "uint256",
          "name": "",
          "type": "uint256"
        }
      ],
      "stateMutability": "view",
      "type": "function"
    },
    {
      "inputs": [],
      "name": "getElectionCount",
      "outputs": [
        {
          "internalType": "uint256",
          "name": "",
          "type": "uint256"
        }
      ],
      "stateMutability": "view",
      "type": "function"
    },
    {
      "inputs": [
        {
          "internalType": "uint256",
          "name": "_electionId",
          "type": "uint256"
        },
        {
          "internalType": "address",
          "name": "user",
          "type": "address"
        }
      ],
      "name": "hasAlreadyVoted",
      "outputs": [
        {
          "internalType": "bool",
          "name": "",
          "type": "bool"
        }
      ],
      "stateMutability": "view",
      "type": "function"
    },
    {
      "inputs": [
        {
          "internalType": "uint256",
          "name": "_electionId",
          "type": "uint256"
        },
        {
          "internalType": "address",
          "name": "user",
          "type": "address"
        }
      ],
      "name": "isRegistered",
      "outputs": [
        {
          "internalType": "bool",
          "name": "",
          "type": "bool"
        }
      ],
      "stateMutability": "view",
      "type": "function"
    },
    {
      "inputs": [
        {
          "internalType": "uint256",
          "name": "_electionId",
          "type": "uint256"
        },
        {
          "internalType": "bytes32",
          "name": "h",
          "type": "bytes32"
        }
      ],
      "name": "isWhitelisted",
      "outputs": [
        {
          "internalType": "bool",
          "name": "",
          "type": "bool"
        }
      ],
      "stateMutability": "view",
      "type": "function"
    },
    {
      "inputs": [
        {
          "internalType": "uint256",
          "name": "_electionId",
          "type": "uint256"
        },
        {
          "internalType": "bytes32",
          "name": "_hashedId",
          "type": "bytes32"
        }
      ],
      "name": "register",
      "outputs": [],
      "stateMutability": "nonpayable",
      "type": "function"
    },
    {
      "inputs": [
        {
          "internalType": "uint256",
          "name": "_electionId",
          "type": "uint256"
        },
        {
          "internalType": "address",
          "name": "user",
          "type": "address"
        },
        {
          "internalType": "bytes32",
          "name": "_hashedId",
          "type": "bytes32"
        }
      ],
      "name": "registerFromBackend",
      "outputs": [],
      "stateMutability": "nonpayable",
      "type": "function"
    },
    {
      "inputs": [
        {
          "internalType": "uint256",
          "name": "",
          "type": "uint256"
        },
        {
          "internalType": "address",
          "name": "",
          "type": "address"
        }
      ],
      "name": "registeredVoterId",
      "outputs": [
        {
          "internalType": "bytes32",
          "name": "",
          "type": "bytes32"
        }
      ],
      "stateMutability": "view",
      "type": "function"
    },
    {
      "inputs": [
        {
          "internalType": "address",
          "name": "newAdmin",
          "type": "address"
        }
      ],
      "name": "transferAdmin",
      "outputs": [],
      "stateMutability": "nonpayable",
      "type": "function"
    },
    {
      "inputs": [
        {
          "internalType": "uint256",
          "name": "",
          "type": "uint256"
        },
        {
          "internalType": "bytes32",
          "name": "",
          "type": "bytes32"
        }
      ],
      "name": "validVoterId",
      "outputs": [
        {
          "internalType": "bool",
          "name": "",
          "type": "bool"
        }
      ],
      "stateMutability": "view",
      "type": "function"
    },
    {
      "inputs": [
        {
          "internalType": "uint256",
          "name": "_electionId",
          "type": "uint256"
        },
        {
          "internalType": "uint256",
          "name": "_candidateId",
          "type": "uint256"
        }
      ],
      "name": "vote",
      "outputs": [],
      "stateMutability": "nonpayable",
      "type": "function"
    },
    {
      "inputs": [
        {
          "internalType": "uint256",
          "name": "",
          "type": "uint256"
        },
        {
          "internalType": "bytes32",
          "name": "",
          "type": "bytes32"
        }
      ],
      "name": "voterIdUsed",
      "outputs": [
        {
          "internalType": "bool",
          "name": "",
          "type": "bool"
        }
      ],
      "stateMutability": "view",
      "type": "function"
    },
    {
      "inputs": [
        {
          "internalType": "uint256",
          "name": "_electionId",
          "type": "uint256"
        },
        {
          "internalType": "bytes32[]",
          "name": "_ids",
          "type": "bytes32[]"
        }
      ],
      "name": "whitelistMultipleVoterIds",
      "outputs": [],
      "stateMutability": "nonpayable",
      "type": "function"
    }
  ],
  "bytecode": "0x608060405234801561001057600080fd5b50336000806101000a81548173ffffffffffffffffffffffffffffffffffffffff021916908373ffffffffffffffffffffffffffffffffffffffff1602179055506120eb806100606000396000f3fe608060405234801561001057600080fd5b50600436106101215760003560e01c80638a28b3f8116100ad578063c14bfd2911610071578063c14bfd2914610341578063f0ba55e014610371578063f49a7a17146103a1578063f851a440146103bd578063fe0af8f7146103db57610121565b80638a28b3f814610289578063997d2830146102a55780639d710777146102c3578063b384abef146102f5578063b81f6e181461031157610121565b80632965d809116100f45780632965d809146101c05780634bd46448146101dc5780636909fd441461020d5780636aca18581461023d57806375829def1461026d57610121565b80631750a3d0146101265780631a5455fc14610142578063213785a01461017257806326f6a2aa14610190575b600080fd5b610140600480360381019061013b9190611368565b6103f7565b005b61015c60048036038101906101579190611422565b61050d565b604051610169919061147b565b60405180910390f35b61017a610532565b60405161018791906114a5565b60405180910390f35b6101aa60048036038101906101a591906114c0565b61053c565b6040516101b791906114a5565b60405180910390f35b6101da60048036038101906101d59190611519565b61055c565b005b6101f660048036038101906101f19190611559565b610708565b604051610204929190611618565b60405180910390f35b61022760048036038101906102229190611519565b6107d7565b6040516102349190611663565b60405180910390f35b61025760048036038101906102529190611519565b610813565b6040516102649190611663565b60405180910390f35b6102876004803603810190610282919061167e565b610842565b005b6102a3600480360381019061029e91906116ab565b610913565b005b6102ad610bb0565b6040516102ba91906114a5565b60405180910390f35b6102dd60048036038101906102d891906114c0565b610bb6565b6040516102ec939291906116fe565b60405180910390f35b61030f600480360381019061030a9190611559565b610c7a565b005b61032b60048036038101906103269190611422565b610e47565b6040516103389190611663565b60405180910390f35b61035b60048036038101906103569190611422565b610ea8565b6040516103689190611663565b60405180910390f35b61038b60048036038101906103869190611519565b610f51565b6040516103989190611663565b60405180910390f35b6103bb60048036038101906103b6919061173c565b610f80565b005b6103c56110ab565b6040516103d291906117ba565b60405180910390f35b6103f560048036038101906103f0919061189d565b6110cf565b005b60008054906101000a900473ffffffffffffffffffffffffffffffffffffffff1673ffffffffffffffffffffffffffffffffffffffff163373ffffffffffffffffffffffffffffffffffffffff1614610485576040517f08c379a000000000000000000000000000000000000000000000000000000000815260040161047c90611945565b60405180910390fd5b6000600260008481526020019081526020016000209050604051806040016040528083815260200160008152508160040160008360030154815260200190815260200160002060008201518160000190816104e09190611b71565b506020820151816001015590505080600301600081548092919061050390611c72565b9190505550505050565b6004602052816000526040600020602052806000526040600020600091509150505481565b6000600154905090565b600060026000838152602001908152602001600020600301549050919050565b60008054906101000a900473ffffffffffffffffffffffffffffffffffffffff1673ffffffffffffffffffffffffffffffffffffffff163373ffffffffffffffffffffffffffffffffffffffff16146105ea576040517f08c379a00000000000000000000000000000000000000000000000000000000081526004016105e190611d06565b60405180910390fd5b60036000838152602001908152602001600020600082815260200190815260200160002060009054906101000a900460ff1661065b576040517f08c379a000000000000000000000000000000000000000000000000000000000815260040161065290611d72565b60405180910390fd5b60056000838152602001908152602001600020600082815260200190815260200160002060009054906101000a900460ff16156106cd576040517f08c379a00000000000000000000000000000000000000000000000000000000081526004016106c490611dde565b60405180910390fd5b6040517f08c379a00000000000000000000000000000000000000000000000000000000081526004016106ff90611e4a565b60405180910390fd5b6060600080600260008681526020019081526020016000206004016000858152602001908152602001600020905080600001816001015481805461074b90611994565b80601f016020809104026020016040519081016040528092919081815260200182805461077790611994565b80156107c45780601f10610799576101008083540402835291602001916107c4565b820191906000526020600020905b8154815290600101906020018083116107a757829003601f168201915b5050505050915092509250509250929050565b600060036000848152602001908152602001600020600083815260200190815260200160002060009054906101000a900460ff16905092915050565b60056020528160005260406000206020528060005260406000206000915091509054906101000a900460ff1681565b60008054906101000a900473ffffffffffffffffffffffffffffffffffffffff1673ffffffffffffffffffffffffffffffffffffffff163373ffffffffffffffffffffffffffffffffffffffff16146108d0576040517f08c379a00000000000000000000000000000000000000000000000000000000081526004016108c790611945565b60405180910390fd5b806000806101000a81548173ffffffffffffffffffffffffffffffffffffffff021916908373ffffffffffffffffffffffffffffffffffffffff16021790555050565b60008054906101000a900473ffffffffffffffffffffffffffffffffffffffff1673ffffffffffffffffffffffffffffffffffffffff163373ffffffffffffffffffffffffffffffffffffffff16146109a1576040517f08c379a000000000000000000000000000000000000000000000000000000000815260040161099890611945565b60405180910390fd5b60036000848152602001908152602001600020600082815260200190815260200160002060009054906101000a900460ff16610a12576040517f08c379a0000000000000000000000000000000000000000000000000000000008152600401610a0990611d72565b60405180910390fd5b6000801b6004600085815260200190815260200160002060008473ffffffffffffffffffffffffffffffffffffffff1673ffffffffffffffffffffffffffffffffffffffff1681526020019081526020016000205414610aa7576040517f08c379a0000000000000000000000000000000000000000000000000000000008152600401610a9e90611eb6565b60405180910390fd5b60056000848152602001908152602001600020600082815260200190815260200160002060009054906101000a900460ff1615610b19576040517f08c379a0000000000000000000000000000000000000000000000000000000008152600401610b1090611dde565b60405180910390fd5b806004600085815260200190815260200160002060008473ffffffffffffffffffffffffffffffffffffffff1673ffffffffffffffffffffffffffffffffffffffff16815260200190815260200160002081905550600160056000858152602001908152602001600020600083815260200190815260200160002060006101000a81548160ff021916908315150217905550505050565b60015481565b606060008060006002600086815260200190815260200160002090508060000181600101548260020154828054610bec90611994565b80601f0160208091040260200160405190810160405280929190818152602001828054610c1890611994565b8015610c655780601f10610c3a57610100808354040283529160200191610c65565b820191906000526020600020905b815481529060010190602001808311610c4857829003601f168201915b50505050509250935093509350509193909250565b600060026000848152602001908152602001600020905080600101544210158015610ca9575080600201544211155b610ce8576040517f08c379a0000000000000000000000000000000000000000000000000000000008152600401610cdf90611f22565b60405180910390fd5b60006004600085815260200190815260200160002060003373ffffffffffffffffffffffffffffffffffffffff1673ffffffffffffffffffffffffffffffffffffffff1681526020019081526020016000205490506000801b8103610d82576040517f08c379a0000000000000000000000000000000000000000000000000000000008152600401610d7990611f8e565b60405180910390fd5b81600501600082815260200190815260200160002060009054906101000a900460ff1615610de5576040517f08c379a0000000000000000000000000000000000000000000000000000000008152600401610ddc90611ffa565b60405180910390fd5b8160040160008481526020019081526020016000206001016000815480929190610e0e90611c72565b9190505550600182600501600083815260200190815260200160002060006101000a81548160ff02191690831515021790555050505050565b60008060001b6004600085815260200190815260200160002060008473ffffffffffffffffffffffffffffffffffffffff1673ffffffffffffffffffffffffffffffffffffffff168152602001908152602001600020541415905092915050565b6000806004600085815260200190815260200160002060008473ffffffffffffffffffffffffffffffffffffffff1673ffffffffffffffffffffffffffffffffffffffff1681526020019081526020016000205490506000801b8103610f12576000915050610f4b565b60026000858152602001908152602001600020600501600082815260200190815260200160002060009054906101000a900460ff169150505b92915050565b60036020528160005260406000206020528060005260406000206000915091509054906101000a900460ff1681565b60008054906101000a900473ffffffffffffffffffffffffffffffffffffffff1673ffffffffffffffffffffffffffffffffffffffff163373ffffffffffffffffffffffffffffffffffffffff161461100e576040517f08c379a000000000000000000000000000000000000000000000000000000000815260040161100590611945565b60405180910390fd5b808210611050576040517f08c379a000000000000000000000000000000000000000000000000000000000815260040161104790612066565b60405180910390fd5b600060026000600154815260200190815260200160002090508381600001908161107a9190611b71565b50828160010181905550818160020181905550600160008154809291906110a090611c72565b919050555050505050565b60008054906101000a900473ffffffffffffffffffffffffffffffffffffffff1681565b60008054906101000a900473ffffffffffffffffffffffffffffffffffffffff1673ffffffffffffffffffffffffffffffffffffffff163373ffffffffffffffffffffffffffffffffffffffff161461115d576040517f08c379a000000000000000000000000000000000000000000000000000000000815260040161115490611945565b60405180910390fd5b60005b81518110156111d357600160036000858152602001908152602001600020600084848151811061119357611192612086565b5b6020026020010151815260200190815260200160002060006101000a81548160ff02191690831515021790555080806111cb90611c72565b915050611160565b505050565b6000604051905090565b600080fd5b600080fd5b6000819050919050565b6111ff816111ec565b811461120a57600080fd5b50565b60008135905061121c816111f6565b92915050565b600080fd5b600080fd5b6000601f19601f8301169050919050565b7f4e487b7100000000000000000000000000000000000000000000000000000000600052604160045260246000fd5b6112758261122c565b810181811067ffffffffffffffff821117156112945761129361123d565b5b80604052505050565b60006112a76111d8565b90506112b3828261126c565b919050565b600067ffffffffffffffff8211156112d3576112d261123d565b5b6112dc8261122c565b9050602081019050919050565b82818337600083830152505050565b600061130b611306846112b8565b61129d565b90508281526020810184848401111561132757611326611227565b5b6113328482856112e9565b509392505050565b600082601f83011261134f5761134e611222565b5b813561135f8482602086016112f8565b91505092915050565b6000806040838503121561137f5761137e6111e2565b5b600061138d8582860161120d565b925050602083013567ffffffffffffffff8111156113ae576113ad6111e7565b5b6113ba8582860161133a565b9150509250929050565b600073ffffffffffffffffffffffffffffffffffffffff82169050919050565b60006113ef826113c4565b9050919050565b6113ff816113e4565b811461140a57600080fd5b50565b60008135905061141c816113f6565b92915050565b60008060408385031215611439576114386111e2565b5b60006114478582860161120d565b92505060206114588582860161140d565b9150509250929050565b6000819050919050565b61147581611462565b82525050565b6000602082019050611490600083018461146c565b92915050565b61149f816111ec565b82525050565b60006020820190506114ba6000830184611496565b92915050565b6000602082840312156114d6576114d56111e2565b5b60006114e48482850161120d565b91505092915050565b6114f681611462565b811461150157600080fd5b50565b600081359050611513816114ed565b92915050565b600080604083850312156115305761152f6111e2565b5b600061153e8582860161120d565b925050602061154f85828601611504565b9150509250929050565b600080604083850312156115705761156f6111e2565b5b600061157e8582860161120d565b925050602061158f8582860161120d565b9150509250929050565b600081519050919050565b600082825260208201905092915050565b60005b838110156115d35780820151818401526020810190506115b8565b60008484015250505050565b60006115ea82611599565b6115f481856115a4565b93506116048185602086016115b5565b61160d8161122c565b840191505092915050565b6000604082019050818103600083015261163281856115df565b90506116416020830184611496565b9392505050565b60008115159050919050565b61165d81611648565b82525050565b60006020820190506116786000830184611654565b92915050565b600060208284031215611694576116936111e2565b5b60006116a28482850161140d565b91505092915050565b6000806000606084860312156116c4576116c36111e2565b5b60006116d28682870161120d565b93505060206116e38682870161140d565b92505060406116f486828701611504565b9150509250925092565b6000606082019050818103600083015261171881866115df565b90506117276020830185611496565b6117346040830184611496565b949350505050565b600080600060608486031215611755576117546111e2565b5b600084013567ffffffffffffffff811115611773576117726111e7565b5b61177f8682870161133a565b93505060206117908682870161120d565b92505060406117a18682870161120d565b9150509250925092565b6117b4816113e4565b82525050565b60006020820190506117cf60008301846117ab565b92915050565b600067ffffffffffffffff8211156117f0576117ef61123d565b5b602082029050602081019050919050565b600080fd5b6000611819611814846117d5565b61129d565b9050808382526020820190506020840283018581111561183c5761183b611801565b5b835b8181101561186557806118518882611504565b84526020840193505060208101905061183e565b5050509392505050565b600082601f83011261188457611883611222565b5b8135611894848260208601611806565b91505092915050565b600080604083850312156118b4576118b36111e2565b5b60006118c28582860161120d565b925050602083013567ffffffffffffffff8111156118e3576118e26111e7565b5b6118ef8582860161186f565b9150509250929050565b7f4f6e6c792061646d696e20616c6c6f7765640000000000000000000000000000600082015250565b600061192f6012836115a4565b915061193a826118f9565b602082019050919050565b6000602082019050818103600083015261195e81611922565b9050919050565b7f4e487b7100000000000000000000000000000000000000000000000000000000600052602260045260246000fd5b600060028204905060018216806119ac57607f821691505b6020821081036119bf576119be611965565b5b50919050565b60008190508160005260206000209050919050565b60006020601f8301049050919050565b600082821b905092915050565b600060088302611a277fffffffffffffffffffffffffffffffffffffffffffffffffffffffffffffffff826119ea565b611a3186836119ea565b95508019841693508086168417925050509392505050565b6000819050919050565b6000611a6e611a69611a64846111ec565b611a49565b6111ec565b9050919050565b6000819050919050565b611a8883611a53565b611a9c611a9482611a75565b8484546119f7565b825550505050565b600090565b611ab1611aa4565b611abc818484611a7f565b505050565b5b81811015611ae057611ad5600082611aa9565b600181019050611ac2565b5050565b601f821115611b2557611af6816119c5565b611aff846119da565b81016020851015611b0e578190505b611b22611b1a856119da565b830182611ac1565b50505b505050565b600082821c905092915050565b6000611b4860001984600802611b2a565b1980831691505092915050565b6000611b618383611b37565b9150826002028217905092915050565b611b7a82611599565b67ffffffffffffffff811115611b9357611b9261123d565b5b611b9d8254611994565b611ba8828285611ae4565b600060209050601f831160018114611bdb5760008415611bc9578287015190505b611bd38582611b55565b865550611c3b565b601f198416611be9866119c5565b60005b82811015611c1157848901518255600182019150602085019450602081019050611bec565b86831015611c2e5784890151611c2a601f891682611b37565b8355505b6001600288020188555050505b505050505050565b7f4e487b7100000000000000000000000000000000000000000000000000000000600052601160045260246000fd5b6000611c7d826111ec565b91507fffffffffffffffffffffffffffffffffffffffffffffffffffffffffffffffff8203611caf57611cae611c43565b5b600182019050919050565b7f4f6e6c79206261636b656e642063616e20726567697374657200000000000000600082015250565b6000611cf06019836115a4565b9150611cfb82611cba565b602082019050919050565b60006020820190508181036000830152611d1f81611ce3565b9050919050565b7f4e6f742077686974656c69737465640000000000000000000000000000000000600082015250565b6000611d5c600f836115a4565b9150611d6782611d26565b602082019050919050565b60006020820190508181036000830152611d8b81611d4f565b9050919050565b7f4161646861617220616c72656164792075736564000000000000000000000000600082015250565b6000611dc86014836115a4565b9150611dd382611d92565b602082019050919050565b60006020820190508181036000830152611df781611dbb565b9050919050565b7f55736520726567697374657246726f6d4261636b656e64000000000000000000600082015250565b6000611e346017836115a4565b9150611e3f82611dfe565b602082019050919050565b60006020820190508181036000830152611e6381611e27565b9050919050565b7f416c726561647920726567697374657265640000000000000000000000000000600082015250565b6000611ea06012836115a4565b9150611eab82611e6a565b602082019050919050565b60006020820190508181036000830152611ecf81611e93565b9050919050565b7f456c656374696f6e206e6f742061637469766500000000000000000000000000600082015250565b6000611f0c6013836115a4565b9150611f1782611ed6565b602082019050919050565b60006020820190508181036000830152611f3b81611eff565b9050919050565b7f4e6f742072656769737465726564000000000000000000000000000000000000600082015250565b6000611f78600e836115a4565b9150611f8382611f42565b602082019050919050565b60006020820190508181036000830152611fa781611f6b565b9050919050565b7f416c726561647920766f74656400000000000000000000000000000000000000600082015250565b6000611fe4600d836115a4565b9150611fef82611fae565b602082019050919050565b6000602082019050818103600083015261201381611fd7565b9050919050565b7f496e76616c69642074696d650000000000000000000000000000000000000000600082015250565b6000612050600c836115a4565b915061205b8261201a565b602082019050919050565b6000602082019050818103600083015261207f81612043565b9050919050565b7f4e487b7100000000000000000000000000000000000000000000000000000000600052603260045260246000fdfea2646970667358221220f6c12dd3eea56695d1551b8784861e8676d38269e7cb73593664412731bf0d8764736f6c63430008140033",
  "linkReferences": {},
  "deployedLinkReferences": {}
}